:020000040000FA
:020000000528D1
:08000800090083160330880093
:10001000FF3087000030810000308B008312A10187
:10002000A201A301A401A501A601A701A8012C100A
:10003000AC10BB210130AF2145308B2158308B21D2
:1000400045308B214D308B2150308B214C308B2112
:100050004F308B2120308B2144308B2148308B2135
:1000600054308B2131308B2131308B210130B22142
:100070004D308B2153308B2153308B2120308B21FD
:1000800045308B214C308B2145308B2154308B21D6
:1000900052308B214F308B214E308B2149308B21B8
:1000A00043308B2141308B216430AB00F921B821E2
:1000B0006A200A30AB00F921B2202C189028AC1825
:1000C0006A200330AF2121089F200530B221230888
:1000D0009F2059280030AF2152308B2148308B218E
:1000E0003A308B2130308B2130308B210530AF21DD
:1000F00025308B210030B22154308B2145308B21AB
:100100004D308B2150308B213A308B2130308B2178
:1001100030308B210730B22143308B21AC100800E6
:10012000AC185928B8210030AF2145308B2152300E
:100130008B2152308B2130308B21AC145928A720D1
:100140003108303E8B213008303E8B210800B00052
:10015000B101F63030070318AE2808000A30B002AB
:10016000B10AA9282C10A101A201A301A401A50193
:1001700083160710831207100230AB00F921071411
:10018000831607148312C830A700A70BC828F728C6
:100190000718C5288101C830A700A70BD028F72869
:1001A000071CCD280108A8008101E2302807031CA4
:1001B000F728FA30A700A70BDE28F7280718DB2856
:1001C0000108A8008101E2302807031CF728F92064
:1001D0002608A100F9202608A200F9202608A3007D
:1001E000F9202608A400F9202608A50008002C14F0
:1001F0000800A601071CFA280108A8008101F330B5
:100200002807031CF728071803290108A800810103
:10021000EE3028070318A617071C0C290108A800B0
:100220008101F3302807031CF72807181529010856
:10023000A8008101EE30280703182617071C1E2985
:100240000108A8008101F3302807031CF7280718CC
:1002500027290108A8008101EE3028070318A616F7
:10026000071C30290108A8008101F3302807031C6E
:10027000F728071839290108A8008101EE3028075E
:1002800003182616071C42290108A8008101F33033
:100290002807031CF72807184B290108A80081012B
:1002A000EE3028070318A615071C54290108A800DA
:1002B0008101F3302807031CF72807185D2901087E
:1002C000A8008101EE30280703182615071C6629AF
:1002D0000108A8008101F3302807031CF72807183C
:1002E0006F290108A8008101EE3028070318A61421
:1002F000071C78290108A8008101F3302807031C96
:10030000F728071881290108A8008101EE30280785
:1003100003182614080088150811AD00AE008813D4
:100320000813881208122D10AD102D11AD112D08D3
:10033000880708150130AB00F9210811881308134C
:1003400088120812AE0E2E10AE102E11AE112E080D
:10035000880708150130AB00F92108110800803E1C
:10036000C7210800C03EC72108000230C72108008D
:100370000130C7210800EB212830C7210C30C721EC
:100380001430C7210230C7210130C721080088116D
:100390000811AD00AE0088130813881208122D1042
:1003A000AD102D11AD112D08880708150130AB00D7
:1003B000F92108118813081388120812AE0E2E10A6
:1003C000AE102E11AE112E08880708150130AB00B3
:1003D000F9210811080088110811881308138812E0
:1003E00008122030880708150130AB00F9210811E8
:1003F00008000830A900F930AA0064006400AA0BC4
:10040000FD29A90BFB29042A6400AB0BF92908007C
:02400E00313F40
:00000001FF
