:1000000000308A00A62900002930840083130008EC
:10001000031918280130F800F701F70B0D28F80B29
:100020000C284A30F700F70B13281628800B0A28F3
:100030000034A501881108112408A50088130813AD
:10004000881208122410A4102411A411240888076F
:1000500008150230A900042008118813081388121B
:100060000812A50E2510A5102511A5112508880731
:1000700008150230A9000420081100348811081165
:1000800088130813881208122030880708150230D8
:10009000A900042008112830A40019200C30A40065
:1000A00019201430A40019208A110A12112A0230D2
:1000B000A40019208A110A12122A0130A400192062
:1000C0008A110A12132A2108103C03186A281030DA
:1000D000A1006F28A108031D6F280130A100803006
:1000E0002107FF3EA300A40019200034A8018815B1
:1000F00008112708A800881308138812081227106F
:10010000A7102711A7112708880708150230A90092
:10011000042008118813081388120812A80E28104A
:10012000A8102811A8112808880708150230A9006E
:100130000420081188110034F801F901F701FA01CF
:100140002B08031DA6282A080319C0281030AC006C
:100150000310A80DA90DF70DFA0D2B087A02031D47
:10016000B3282A087702031CBC282A08F702031CBC
:10017000FA032B08FA020314F80DF90DAC0BA828AA
:100180000034A101A201A301A40107140630F70065
:10019000F70BC82800000710871CCC288F018E01A0
:1001A0008718D0280F08FA000E08F7000F087A0207
:1001B000031DD2287708A1007A08A2000310210DA0
:1001C000A500220DA6002608A8002508A700AA0160
:1001D0000A30A9001030AB00F701FA01A80CA70CF7
:1001E000031CF8282908F7070318FA0A2A08FA074F
:1001F000FA0CF70CF90CF80CAB0BEE287908A700F9
:100200007808A6007908A9007808A800AB013A3060
:10021000AA009C200A307807A3007908A4000318DC
:10022000A40A2308F8002408F9008A110A122F2AC8
:100230002408A9002308A8002730AB001030AA002A
:100240009C207908A6007808A5003030A50703187F
:10025000A60A2508A70076202408A9002308A800DC
:100260000330AB00E830AA009C207908A60078088B
:10027000A5002608A9002508A800AB010A30AA009D
:100280009C207708A5007A08A6003030A50703183F
:10029000A60A2508A70076202408A9002308A8009C
:1002A000AB016430AA009C207908A6007808A5005C
:1002B0002608A9002508A800AB010A30AA009C2046
:1002C0007708A5007A08A6003030A5070318A60A0B
:1002D0002508A70076202408A9002308A800AB0160
:1002E0000A30AA009C207908A6007808A5002608F4
:1002F000A9002508A800AB010A30AA009C207708B5
:10030000A5007A08A6003030A5070318A60A25081C
:10031000A70076202408A9002308A800AB010A3012
:10032000AA009C207708A5007A08A6003030A5070F
:100330000318A60A2508A70076206D30A7007620AE
:100340006D30A70076208A110A12382A03081F3957
:1003500083005730F7002030840083138001840A23
:10036000F70BAE29F801F901FA01FB01FC01FD01CF
:10037000FE015030F700A030840083138001840A0E
:10038000F70BBE296030F70010308400831780011E
:10039000840AF70BC72983136030F700903084007C
:1003A00083178001840AF70BD1298313A0018401EC
:1003B00083131F30830583161F149F141F159F116D
:1003C00007309C001F149F141F159F1183121F10CC
:1003D00083160912831294120130940000308316A0
:1003E00094000108C03981009530831290000030DC
:1003F000F800920000308316920007309C00050838
:100400000330F700F70B022A1C0883120D13831622
:100410009D01003088000230870083128701880127
:100420003E2857285D280430A10063204430A700EF
:1004300076204930A70076205330A700762054302C
:10044000A70076203A30A70076202030A70076203B
:100450000A30A1006320FA30A9000420C1287908DD
:10046000A2007808A1007908A4007808A300182940
:04047000282A6300D3
:02400E00393F38
:00000001FF
;PIC16F877A
