:1000000000308A00B62A00002E30840083130008D6
:10001000031918280130F800F701F70B0D28F80B29
:100020000C284A30F700F70B13281628800B0A28F3
:100030000034AD01881108112C08AD008813081395
:10004000881208122C10AC102C11AC112C08880747
:1000500008150230AE000420081188130813881216
:100060000812AD0E2D10AD102D11AD112D08880701
:1000700008150230AE000420081100348811081160
:1000800088130813881208122030880708150230D8
:10009000AE00042008112830AC0019200C30AC0050
:1000A00019201430AC0019208A110A122B2B0230AF
:1000B000AC0019208A110A122C2B0130AC00192037
:1000C00000342908103C031868281030A9006D2856
:1000D000A908031D6D280130A90080302907FF3EC3
:1000E000AB00AC0019200034AC01881508112B08B6
:1000F000AC0088130813881208122B10AB102B11B8
:10010000AB112B08880708150230AE000420081137
:100110008813081388120812AC0E2C10AC102C1186
:10012000AC112C08880708150230AE000420081115
:10013000881100342908103C0318A1281030A900A8
:10014000A628A908031DA6280130A900C030290748
:10015000FF3EAB00AC0019200034A601FF30A70021
:100160000718BB28A708031DB8280030F800202A6C
:100170000130A702B0280108A80081010310A80DD2
:100180002808193C0318DC28FF30A700071CD128D9
:10019000A708031DCE280030F800202A0130A7024E
:1001A000C6280108A80081010310A80D2808233CD7
:1001B0000318DC288030A607FF30A7000718E928BD
:1001C000A708031DE6280030F800202A0130A70206
:1001D000DE280108A80081010310A80D2808193C99
:1001E00003180A29FF30A700071CFF28A708031DD2
:1001F000FC280030F800202A0130A702F42801086A
:10020000A80081010310A80D2808233C03180A291F
:100210004030A607FF30A70007181729A708031DBD
:1002200014290030F800202A0130A7020C29010807
:10023000A80081010310A80D2808193C03183829CB
:10024000FF30A700071C2D29A708031D2A2900300D
:10025000F800202A0130A70222290108A800810104
:100260000310A80D2808233C031838292030A607BE
:10027000FF30A70007184529A708031D42290030B1
:10028000F800202A0130A7023A290108A8008101BC
:100290000310A80D2808193C03186629FF30A70091
:1002A000071C5B29A708031D58290030F800202AE5
:1002B0000130A70250290108A80081010310A80DF0
:1002C0002808233C031866291030A607FF30A70032
:1002D00007187329A708031D70290030F800202A89
:1002E0000130A70268290108A80081010310A80DA8
:1002F0002808193C03189429FF30A700071C8929F6
:10030000A708031D86290030F800202A0130A70223
:100310007E290108A80081010310A80D2808233CAC
:10032000031894290830A607FF30A7000718A12951
:10033000A708031D9E290030F800202A0130A702DB
:1003400096290108A80081010310A80D2808193C6E
:100350000318C229FF30A700071CB729A708031DEF
:10036000B4290030F800202A0130A702AC29010886
:10037000A80081010310A80D2808233C0318C229F6
:100380000430A607FF30A7000718CF29A708031DD0
:10039000CC290030F800202A0130A702C429010826
:1003A000A80081010310A80D2808193C0318F029A2
:1003B000FF30A700071CE529A708031DE22900302C
:1003C000F800202A0130A702DA290108A8008101DB
:1003D0000310A80D2808233C0318F0290230A607B3
:1003E000FF30A7000718FD29A708031DFA290030D0
:1003F000F800202A0130A702F2290108A800810193
:100400000310A80D2808193C03181E2AFF30A70066
:10041000071C132AA708031D102A0030F800202A01
:100420000130A702082A0108A80081010310A80DC5
:100430002808233C03181E2A0130A6072608F800C6
:100440000034A101A201A301A401A50120102008EC
:1004500083168700831207101430AE00042007149F
:10046000201420088316870083120718352A81017B
:10047000FF30A7000718452AA708031D422A0030AD
:10048000F8007D2A0130A7023A2A0108A80081015C
:100490000310A80D2808283C0318782AFF30A7006D
:1004A000071C5B2AA708031D582A0030F8007D2A84
:1004B0000130A702502A0108A80081010310A80DED
:1004C0002808283C0318742AAD207808A100AD2024
:1004D0007808A200AD207808A300AD207808A40019
:1004E000AD207808A500772A0030F8007D2A7B2A05
:1004F0000030F8007D2A0130F8008A110A128D2B95
:100500002C08F8012B020318882A2B08F700942ADC
:10051000F7010830AD00AB0DF70D2C08770203187A
:10052000F700F80DAD0B8B2A0034AA012908AB00A7
:100530000A30AC0080227808AA002A08AB000A30F2
:10054000AC0080227708AA003030AA072A08AB0046
:1005500074202908AB000A30AC0080227708AA007A
:100560003030AA072A08AB007420003403081F3972
:1005700083005730F7002030840083138001840A01
:10058000F70BBE2AF801F901FA01FB01FC01FD019C
:10059000FE015030F700A030840083138001840AEC
:1005A000F70BCE2A6030F7001030840083178001EB
:1005B000840AF70BD72A83136030F7009030840049
:1005C00083178001840AF70BE12A8313A0018401B9
:1005D00083131F30830583161F149F141F159F114B
:1005E00007309C008312A001A101A201A301A40174
:1005F000A501A601A701A80183161F149F141F15AA
:100600009F1183121F108316091283129412013056
:10061000940000308316940083129001F800920039
:1006200000308316920007309C0005080330F70065
:10063000F70B182B1C0883120D1383169D0101085C
:10064000C0398100831220142008831687000030EF
:10065000880083123E2857285D200230A9006120BF
:100660004530AB0074205830AB0074204530AB00EF
:1006700074204D30AB0074205030AB0074204C30EF
:10068000AB0074204F30AB0074202030AB007420DE
:100690004430AB0074205430AB0074204830AB00C1
:1006A00074203130AB0074203130AB007420023044
:1006B000A9009A204D30AB0074205330AB00742059
:1006C0005330AB0074202030AB0074204530AB00B9
:1006D00074204C30AB0074204530AB007420543093
:1006E000AB0074205230AB0074204F30AB0074204C
:1006F0004E30AB0074204930AB0074204330AB0067
:1007000074204130AB0074201030A900FA30AE00E4
:100710000420A90B862B5D20212AF8080319D62B6B
:1007200022082107230724072502031DC22B0130BD
:10073000A90061205230AB0074204830AB00742017
:100740003A30AB0074202108A90095222530AB0077
:1007500074200130A9009A205430AB007420453039
:10076000AB0074204D30AB0074205030AB007420CF
:100770003A30AB0074202308A90095224330AB0027
:100780007420D52B5D200130A90061204530AB00DD
:1007900074205230AB0074205230AB0074204F30C4
:1007A000AB0074202130AB007420E92B5D200130B8
:1007B000A90061204530AB0074205230AB0074209A
:1007C0005230AB0074204F30AB0074202130AB00AE
:1007D00074200430A900FA30AE000420A90BEB2BE2
:0407E0008C2B6300FB
:02400E003A3F37
:00000001FF
;PIC16F877A
